{
  "_format": "hh-sol-artifact-1",
  "contractName": "BookShelf",
  "sourceName": "contracts/BookShelf.sol",
  "abi": [
    {
      "inputs": [],
      "stateMutability": "payable",
      "type": "constructor"
    },
    {
      "inputs": [],
      "name": "author",
      "outputs": [
        {
          "internalType": "address payable",
          "name": "",
          "type": "address"
        }
      ],
      "stateMutability": "view",
      "type": "function"
    },
    {
      "inputs": [
        {
          "internalType": "uint256",
          "name": "bookId",
          "type": "uint256"
        }
      ],
      "name": "buyBook",
      "outputs": [],
      "stateMutability": "payable",
      "type": "function"
    },
    {
      "inputs": [],
      "name": "getAuthorBooks",
      "outputs": [
        {
          "components": [
            {
              "internalType": "address",
              "name": "author",
              "type": "address"
            },
            {
              "internalType": "uint256",
              "name": "bookId",
              "type": "uint256"
            },
            {
              "internalType": "uint8",
              "name": "price",
              "type": "uint8"
            },
            {
              "internalType": "bytes",
              "name": "title",
              "type": "bytes"
            },
            {
              "internalType": "bytes",
              "name": "author_name",
              "type": "bytes"
            },
            {
              "internalType": "bytes",
              "name": "published_date",
              "type": "bytes"
            },
            {
              "internalType": "bytes",
              "name": "content",
              "type": "bytes"
            },
            {
              "internalType": "enum BookShelf.BookStatus",
              "name": "status",
              "type": "uint8"
            },
            {
              "internalType": "uint256",
              "name": "purchase_counter",
              "type": "uint256"
            }
          ],
          "internalType": "struct BookShelf.BookMetadata[]",
          "name": "",
          "type": "tuple[]"
        }
      ],
      "stateMutability": "view",
      "type": "function"
    },
    {
      "inputs": [
        {
          "internalType": "address",
          "name": "buyer",
          "type": "address"
        }
      ],
      "name": "getBuyerBooks",
      "outputs": [
        {
          "components": [
            {
              "internalType": "address",
              "name": "author",
              "type": "address"
            },
            {
              "internalType": "uint256",
              "name": "bookId",
              "type": "uint256"
            },
            {
              "internalType": "uint8",
              "name": "price",
              "type": "uint8"
            },
            {
              "internalType": "bytes",
              "name": "title",
              "type": "bytes"
            },
            {
              "internalType": "bytes",
              "name": "author_name",
              "type": "bytes"
            },
            {
              "internalType": "bytes",
              "name": "published_date",
              "type": "bytes"
            },
            {
              "internalType": "bytes",
              "name": "content",
              "type": "bytes"
            },
            {
              "internalType": "enum BookShelf.BookStatus",
              "name": "status",
              "type": "uint8"
            },
            {
              "internalType": "uint256",
              "name": "purchase_counter",
              "type": "uint256"
            }
          ],
          "internalType": "struct BookShelf.BookMetadata[]",
          "name": "",
          "type": "tuple[]"
        }
      ],
      "stateMutability": "view",
      "type": "function"
    },
    {
      "inputs": [
        {
          "internalType": "string",
          "name": "title_",
          "type": "string"
        },
        {
          "internalType": "string",
          "name": "content_",
          "type": "string"
        },
        {
          "internalType": "string",
          "name": "authorname_",
          "type": "string"
        },
        {
          "internalType": "string",
          "name": "date_",
          "type": "string"
        },
        {
          "internalType": "uint256",
          "name": "purchase_counter_",
          "type": "uint256"
        },
        {
          "internalType": "uint8",
          "name": "price_",
          "type": "uint8"
        },
        {
          "internalType": "enum BookShelf.BookStatus",
          "name": "bookstatus_",
          "type": "uint8"
        }
      ],
      "name": "publishBook",
      "outputs": [],
      "stateMutability": "nonpayable",
      "type": "function"
    }
  ],
  "bytecode": "0x608060405233600260006101000a81548173ffffffffffffffffffffffffffffffffffffffff021916908373ffffffffffffffffffffffffffffffffffffffff160217905550611e13806100546000396000f3fe60806040526004361061004a5760003560e01c806316d1d9411461004f5780636ee265661461007a578063a6c3e6b914610096578063b5415fa3146100c1578063c8b237c2146100fe575b600080fd5b34801561005b57600080fd5b50610064610127565b60405161007191906113bc565b60405180910390f35b610094600480360381019061008f919061141e565b6104ef565b005b3480156100a257600080fd5b506100ab610823565b6040516100b8919061146c565b60405180910390f35b3480156100cd57600080fd5b506100e860048036038101906100e391906114b3565b610849565b6040516100f591906113bc565b60405180910390f35b34801561010a57600080fd5b5061012560048036038101906101209190611666565b610cee565b005b6060600080600260009054906101000a900473ffffffffffffffffffffffffffffffffffffffff1673ffffffffffffffffffffffffffffffffffffffff1673ffffffffffffffffffffffffffffffffffffffff168152602001908152602001600020805480602002602001604051908101604052809291908181526020016000905b828210156104e65783829060005260206000209060090201604051806101200160405290816000820160009054906101000a900473ffffffffffffffffffffffffffffffffffffffff1673ffffffffffffffffffffffffffffffffffffffff1673ffffffffffffffffffffffffffffffffffffffff168152602001600182015481526020016002820160009054906101000a900460ff1660ff1660ff16815260200160038201805461025a906117a7565b80601f0160208091040260200160405190810160405280929190818152602001828054610286906117a7565b80156102d35780601f106102a8576101008083540402835291602001916102d3565b820191906000526020600020905b8154815290600101906020018083116102b657829003601f168201915b505050505081526020016004820180546102ec906117a7565b80601f0160208091040260200160405190810160405280929190818152602001828054610318906117a7565b80156103655780601f1061033a57610100808354040283529160200191610365565b820191906000526020600020905b81548152906001019060200180831161034857829003601f168201915b5050505050815260200160058201805461037e906117a7565b80601f01602080910402602001604051908101604052809291908181526020018280546103aa906117a7565b80156103f75780601f106103cc576101008083540402835291602001916103f7565b820191906000526020600020905b8154815290600101906020018083116103da57829003601f168201915b50505050508152602001600682018054610410906117a7565b80601f016020809104026020016040519081016040528092919081815260200182805461043c906117a7565b80156104895780601f1061045e57610100808354040283529160200191610489565b820191906000526020600020905b81548152906001019060200180831161046c57829003601f168201915b505050505081526020016007820160009054906101000a900460ff1660018111156104b7576104b66111d5565b5b60018111156104c9576104c86111d5565b5b8152602001600882015481525050815260200190600101906101a9565b50505050905090565b600260009054906101000a900473ffffffffffffffffffffffffffffffffffffffff1673ffffffffffffffffffffffffffffffffffffffff163373ffffffffffffffffffffffffffffffffffffffff160361057f576040517f08c379a00000000000000000000000000000000000000000000000000000000081526004016105769061185b565b60405180910390fd5b6000806000600260009054906101000a900473ffffffffffffffffffffffffffffffffffffffff1673ffffffffffffffffffffffffffffffffffffffff1673ffffffffffffffffffffffffffffffffffffffff16815260200190815260200160002090506000821180156105f7575080805490508211155b610636576040517f08c379a000000000000000000000000000000000000000000000000000000000815260040161062d906118c7565b60405180910390fd5b6000816001846106469190611916565b815481106106575761065661194a565b5b9060005260206000209060090201905060018081111561067a576106796111d5565b5b8160070160009054906101000a900460ff16600181111561069e5761069d6111d5565b5b146106de576040517f08c379a00000000000000000000000000000000000000000000000000000000081526004016106d5906119c5565b60405180910390fd5b8060020160009054906101000a900460ff1660ff16341015610735576040517f08c379a000000000000000000000000000000000000000000000000000000000815260040161072c90611a57565b60405180910390fd5b80600801600081548092919061074a90611a77565b9190505550600260009054906101000a900473ffffffffffffffffffffffffffffffffffffffff1673ffffffffffffffffffffffffffffffffffffffff166108fc349081150290604051600060405180830381858888f193505050501580156107b7573d6000803e3d6000fd5b50600160003373ffffffffffffffffffffffffffffffffffffffff1673ffffffffffffffffffffffffffffffffffffffff168152602001908152602001600020839080600181540180825580915050600190039060005260206000200160009091909190915055505050565b600260009054906101000a900473ffffffffffffffffffffffffffffffffffffffff1681565b60606000600160008473ffffffffffffffffffffffffffffffffffffffff1673ffffffffffffffffffffffffffffffffffffffff16815260200190815260200160002090506000818054905067ffffffffffffffff8111156108ae576108ad6114ea565b5b6040519080825280602002602001820160405280156108e757816020015b6108d461102c565b8152602001906001900390816108cc5790505b50905060005b8280549050811015610ce357600080600260009054906101000a900473ffffffffffffffffffffffffffffffffffffffff1673ffffffffffffffffffffffffffffffffffffffff1673ffffffffffffffffffffffffffffffffffffffff168152602001908152602001600020600184838154811061096e5761096d61194a565b5b90600052602060002001546109839190611916565b815481106109945761099361194a565b5b9060005260206000209060090201604051806101200160405290816000820160009054906101000a900473ffffffffffffffffffffffffffffffffffffffff1673ffffffffffffffffffffffffffffffffffffffff1673ffffffffffffffffffffffffffffffffffffffff168152602001600182015481526020016002820160009054906101000a900460ff1660ff1660ff168152602001600382018054610a3b906117a7565b80601f0160208091040260200160405190810160405280929190818152602001828054610a67906117a7565b8015610ab45780601f10610a8957610100808354040283529160200191610ab4565b820191906000526020600020905b815481529060010190602001808311610a9757829003601f168201915b50505050508152602001600482018054610acd906117a7565b80601f0160208091040260200160405190810160405280929190818152602001828054610af9906117a7565b8015610b465780601f10610b1b57610100808354040283529160200191610b46565b820191906000526020600020905b815481529060010190602001808311610b2957829003601f168201915b50505050508152602001600582018054610b5f906117a7565b80601f0160208091040260200160405190810160405280929190818152602001828054610b8b906117a7565b8015610bd85780601f10610bad57610100808354040283529160200191610bd8565b820191906000526020600020905b815481529060010190602001808311610bbb57829003601f168201915b50505050508152602001600682018054610bf1906117a7565b80601f0160208091040260200160405190810160405280929190818152602001828054610c1d906117a7565b8015610c6a5780601f10610c3f57610100808354040283529160200191610c6a565b820191906000526020600020905b815481529060010190602001808311610c4d57829003601f168201915b505050505081526020016007820160009054906101000a900460ff166001811115610c9857610c976111d5565b5b6001811115610caa57610ca96111d5565b5b8152602001600882015481525050828281518110610ccb57610cca61194a565b5b602002602001018190525080806001019150506108ed565b508092505050919050565b600260009054906101000a900473ffffffffffffffffffffffffffffffffffffffff1673ffffffffffffffffffffffffffffffffffffffff163373ffffffffffffffffffffffffffffffffffffffff1614610d7e576040517f08c379a0000000000000000000000000000000000000000000000000000000008152600401610d7590611b0b565b60405180910390fd5b60006001600080600260009054906101000a900473ffffffffffffffffffffffffffffffffffffffff1673ffffffffffffffffffffffffffffffffffffffff1673ffffffffffffffffffffffffffffffffffffffff16815260200190815260200160002080549050610df09190611b2b565b905060008403610dff57600091505b6000604051806101200160405280600260009054906101000a900473ffffffffffffffffffffffffffffffffffffffff1673ffffffffffffffffffffffffffffffffffffffff1681526020018381526020018560ff1681526020018a8152602001888152602001878152602001898152602001846001811115610e8557610e846111d5565b5b8152602001868152509050600080600260009054906101000a900473ffffffffffffffffffffffffffffffffffffffff1673ffffffffffffffffffffffffffffffffffffffff1673ffffffffffffffffffffffffffffffffffffffff16815260200190815260200160002081908060018154018082558091505060019003906000526020600020906009020160009091909190915060008201518160000160006101000a81548173ffffffffffffffffffffffffffffffffffffffff021916908373ffffffffffffffffffffffffffffffffffffffff1602179055506020820151816001015560408201518160020160006101000a81548160ff021916908360ff1602179055506060820151816003019081610fa19190611d0b565b506080820151816004019081610fb79190611d0b565b5060a0820151816005019081610fcd9190611d0b565b5060c0820151816006019081610fe39190611d0b565b5060e08201518160070160006101000a81548160ff0219169083600181111561100f5761100e6111d5565b5b021790555061010082015181600801555050505050505050505050565b604051806101200160405280600073ffffffffffffffffffffffffffffffffffffffff16815260200160008152602001600060ff1681526020016060815260200160608152602001606081526020016060815260200160006001811115611096576110956111d5565b5b8152602001600081525090565b600081519050919050565b600082825260208201905092915050565b6000819050602082019050919050565b600073ffffffffffffffffffffffffffffffffffffffff82169050919050565b60006110fa826110cf565b9050919050565b61110a816110ef565b82525050565b6000819050919050565b61112381611110565b82525050565b600060ff82169050919050565b61113f81611129565b82525050565b600081519050919050565b600082825260208201905092915050565b60005b8381101561117f578082015181840152602081019050611164565b60008484015250505050565b6000601f19601f8301169050919050565b60006111a782611145565b6111b18185611150565b93506111c1818560208601611161565b6111ca8161118b565b840191505092915050565b7f4e487b7100000000000000000000000000000000000000000000000000000000600052602160045260246000fd5b60028110611215576112146111d5565b5b50565b600081905061122682611204565b919050565b600061123682611218565b9050919050565b6112468161122b565b82525050565b6000610120830160008301516112656000860182611101565b506020830151611278602086018261111a565b50604083015161128b6040860182611136565b50606083015184820360608601526112a3828261119c565b915050608083015184820360808601526112bd828261119c565b91505060a083015184820360a08601526112d7828261119c565b91505060c083015184820360c08601526112f1828261119c565b91505060e083015161130660e086018261123d565b5061010083015161131b61010086018261111a565b508091505092915050565b6000611332838361124c565b905092915050565b6000602082019050919050565b6000611352826110a3565b61135c81856110ae565b93508360208202850161136e856110bf565b8060005b858110156113aa578484038952815161138b8582611326565b94506113968361133a565b925060208a01995050600181019050611372565b50829750879550505050505092915050565b600060208201905081810360008301526113d68184611347565b905092915050565b6000604051905090565b600080fd5b600080fd5b6113fb81611110565b811461140657600080fd5b50565b600081359050611418816113f2565b92915050565b600060208284031215611434576114336113e8565b5b600061144284828501611409565b91505092915050565b6000611456826110cf565b9050919050565b6114668161144b565b82525050565b6000602082019050611481600083018461145d565b92915050565b611490816110ef565b811461149b57600080fd5b50565b6000813590506114ad81611487565b92915050565b6000602082840312156114c9576114c86113e8565b5b60006114d78482850161149e565b91505092915050565b600080fd5b600080fd5b7f4e487b7100000000000000000000000000000000000000000000000000000000600052604160045260246000fd5b6115228261118b565b810181811067ffffffffffffffff82111715611541576115406114ea565b5b80604052505050565b60006115546113de565b90506115608282611519565b919050565b600067ffffffffffffffff8211156115805761157f6114ea565b5b6115898261118b565b9050602081019050919050565b82818337600083830152505050565b60006115b86115b384611565565b61154a565b9050828152602081018484840111156115d4576115d36114e5565b5b6115df848285611596565b509392505050565b600082601f8301126115fc576115fb6114e0565b5b813561160c8482602086016115a5565b91505092915050565b61161e81611129565b811461162957600080fd5b50565b60008135905061163b81611615565b92915050565b6002811061164e57600080fd5b50565b60008135905061166081611641565b92915050565b600080600080600080600060e0888a031215611685576116846113e8565b5b600088013567ffffffffffffffff8111156116a3576116a26113ed565b5b6116af8a828b016115e7565b975050602088013567ffffffffffffffff8111156116d0576116cf6113ed565b5b6116dc8a828b016115e7565b965050604088013567ffffffffffffffff8111156116fd576116fc6113ed565b5b6117098a828b016115e7565b955050606088013567ffffffffffffffff81111561172a576117296113ed565b5b6117368a828b016115e7565b94505060806117478a828b01611409565b93505060a06117588a828b0161162c565b92505060c06117698a828b01611651565b91505092959891949750929550565b7f4e487b7100000000000000000000000000000000000000000000000000000000600052602260045260246000fd5b600060028204905060018216806117bf57607f821691505b6020821081036117d2576117d1611778565b5b50919050565b600082825260208201905092915050565b7f417574686f722063616e6e6f7420627579207468656972206f776e20626f6f6b60008201527f7300000000000000000000000000000000000000000000000000000000000000602082015250565b60006118456021836117d8565b9150611850826117e9565b604082019050919050565b6000602082019050818103600083015261187481611838565b9050919050565b7f496e76616c696420626f6f6b2049440000000000000000000000000000000000600082015250565b60006118b1600f836117d8565b91506118bc8261187b565b602082019050919050565b600060208201905081810360008301526118e0816118a4565b9050919050565b7f4e487b7100000000000000000000000000000000000000000000000000000000600052601160045260246000fd5b600061192182611110565b915061192c83611110565b9250828203905081811115611944576119436118e7565b5b92915050565b7f4e487b7100000000000000000000000000000000000000000000000000000000600052603260045260246000fd5b7f426f6f6b206973206e6f7420617661696c61626c6520666f722073616c650000600082015250565b60006119af601e836117d8565b91506119ba82611979565b602082019050919050565b600060208201905081810360008301526119de816119a2565b9050919050565b7f496e73756666696369656e742066756e647320746f206275792074686973206260008201527f6f6f6b0000000000000000000000000000000000000000000000000000000000602082015250565b6000611a416023836117d8565b9150611a4c826119e5565b604082019050919050565b60006020820190508181036000830152611a7081611a34565b9050919050565b6000611a8282611110565b91507fffffffffffffffffffffffffffffffffffffffffffffffffffffffffffffffff8203611ab457611ab36118e7565b5b600182019050919050565b7f4f6e6c7920617574686f722063616e207075626c69736820626f6f6b73000000600082015250565b6000611af5601d836117d8565b9150611b0082611abf565b602082019050919050565b60006020820190508181036000830152611b2481611ae8565b9050919050565b6000611b3682611110565b9150611b4183611110565b9250828201905080821115611b5957611b586118e7565b5b92915050565b60008190508160005260206000209050919050565b60006020601f8301049050919050565b600082821b905092915050565b600060088302611bc17fffffffffffffffffffffffffffffffffffffffffffffffffffffffffffffffff82611b84565b611bcb8683611b84565b95508019841693508086168417925050509392505050565b6000819050919050565b6000611c08611c03611bfe84611110565b611be3565b611110565b9050919050565b6000819050919050565b611c2283611bed565b611c36611c2e82611c0f565b848454611b91565b825550505050565b600090565b611c4b611c3e565b611c56818484611c19565b505050565b5b81811015611c7a57611c6f600082611c43565b600181019050611c5c565b5050565b601f821115611cbf57611c9081611b5f565b611c9984611b74565b81016020851015611ca8578190505b611cbc611cb485611b74565b830182611c5b565b50505b505050565b600082821c905092915050565b6000611ce260001984600802611cc4565b1980831691505092915050565b6000611cfb8383611cd1565b9150826002028217905092915050565b611d1482611145565b67ffffffffffffffff811115611d2d57611d2c6114ea565b5b611d3782546117a7565b611d42828285611c7e565b600060209050601f831160018114611d755760008415611d63578287015190505b611d6d8582611cef565b865550611dd5565b601f198416611d8386611b5f565b60005b82811015611dab57848901518255600182019150602085019450602081019050611d86565b86831015611dc85784890151611dc4601f891682611cd1565b8355505b6001600288020188555050505b50505050505056fea264697066735822122026ee1ad2e4ef8b3a0877451bd357e51447844e94dfe2ba85a8b3d96f7e04750a64736f6c63430008180033",
  "linkReferences": {},
  "deployedLinkReferences": {}
}