{
  "_format": "hh-sol-artifact-1",
  "contractName": "BookShelf",
  "sourceName": "contracts/BookShelf.sol",
  "abi": [
    {
      "inputs": [],
      "stateMutability": "payable",
      "type": "constructor"
    },
    {
      "inputs": [],
      "name": "author",
      "outputs": [
        {
          "internalType": "address payable",
          "name": "",
          "type": "address"
        }
      ],
      "stateMutability": "view",
      "type": "function"
    },
    {
      "inputs": [
        {
          "internalType": "uint256",
          "name": "bookId",
          "type": "uint256"
        }
      ],
      "name": "buyBook",
      "outputs": [],
      "stateMutability": "payable",
      "type": "function"
    },
    {
      "inputs": [],
      "name": "getAuthorBooks",
      "outputs": [
        {
          "components": [
            {
              "internalType": "address",
              "name": "author",
              "type": "address"
            },
            {
              "internalType": "uint256",
              "name": "bookId",
              "type": "uint256"
            },
            {
              "internalType": "uint8",
              "name": "price",
              "type": "uint8"
            },
            {
              "internalType": "bytes",
              "name": "title",
              "type": "bytes"
            },
            {
              "internalType": "bytes",
              "name": "author_name",
              "type": "bytes"
            },
            {
              "internalType": "bytes",
              "name": "published_date",
              "type": "bytes"
            },
            {
              "internalType": "bytes",
              "name": "content",
              "type": "bytes"
            },
            {
              "internalType": "enum BookShelf.BookStatus",
              "name": "status",
              "type": "uint8"
            },
            {
              "internalType": "uint256",
              "name": "purchase_counter",
              "type": "uint256"
            }
          ],
          "internalType": "struct BookShelf.BookMetadata[]",
          "name": "",
          "type": "tuple[]"
        }
      ],
      "stateMutability": "view",
      "type": "function"
    },
    {
      "inputs": [
        {
          "internalType": "string",
          "name": "title_",
          "type": "string"
        },
        {
          "internalType": "string",
          "name": "content_",
          "type": "string"
        },
        {
          "internalType": "string",
          "name": "authorname_",
          "type": "string"
        },
        {
          "internalType": "string",
          "name": "date_",
          "type": "string"
        },
        {
          "internalType": "uint256",
          "name": "purchase_counter_",
          "type": "uint256"
        },
        {
          "internalType": "uint8",
          "name": "price_",
          "type": "uint8"
        },
        {
          "internalType": "enum BookShelf.BookStatus",
          "name": "bookstatus_",
          "type": "uint8"
        }
      ],
      "name": "publishBook",
      "outputs": [],
      "stateMutability": "nonpayable",
      "type": "function"
    }
  ],
  "bytecode": "0x608060405233600160006101000a81548173ffffffffffffffffffffffffffffffffffffffff021916908373ffffffffffffffffffffffffffffffffffffffff1602179055506117f0806100546000396000f3fe60806040526004361061003f5760003560e01c806316d1d941146100445780636ee265661461006f578063a6c3e6b91461008b578063c8b237c2146100b6575b600080fd5b34801561005057600080fd5b506100596100df565b6040516100669190610df2565b60405180910390f35b61008960048036038101906100849190610e54565b6104a7565b005b34801561009757600080fd5b506100a0610775565b6040516100ad9190610ea2565b60405180910390f35b3480156100c257600080fd5b506100dd60048036038101906100d89190611043565b61079b565b005b6060600080600160009054906101000a900473ffffffffffffffffffffffffffffffffffffffff1673ffffffffffffffffffffffffffffffffffffffff1673ffffffffffffffffffffffffffffffffffffffff168152602001908152602001600020805480602002602001604051908101604052809291908181526020016000905b8282101561049e5783829060005260206000209060090201604051806101200160405290816000820160009054906101000a900473ffffffffffffffffffffffffffffffffffffffff1673ffffffffffffffffffffffffffffffffffffffff1673ffffffffffffffffffffffffffffffffffffffff168152602001600182015481526020016002820160009054906101000a900460ff1660ff1660ff16815260200160038201805461021290611184565b80601f016020809104026020016040519081016040528092919081815260200182805461023e90611184565b801561028b5780601f106102605761010080835404028352916020019161028b565b820191906000526020600020905b81548152906001019060200180831161026e57829003601f168201915b505050505081526020016004820180546102a490611184565b80601f01602080910402602001604051908101604052809291908181526020018280546102d090611184565b801561031d5780601f106102f25761010080835404028352916020019161031d565b820191906000526020600020905b81548152906001019060200180831161030057829003601f168201915b5050505050815260200160058201805461033690611184565b80601f016020809104026020016040519081016040528092919081815260200182805461036290611184565b80156103af5780601f10610384576101008083540402835291602001916103af565b820191906000526020600020905b81548152906001019060200180831161039257829003601f168201915b505050505081526020016006820180546103c890611184565b80601f01602080910402602001604051908101604052809291908181526020018280546103f490611184565b80156104415780601f1061041657610100808354040283529160200191610441565b820191906000526020600020905b81548152906001019060200180831161042457829003601f168201915b505050505081526020016007820160009054906101000a900460ff16600181111561046f5761046e610c0b565b5b600181111561048157610480610c0b565b5b815260200160088201548152505081526020019060010190610161565b50505050905090565b600160009054906101000a900473ffffffffffffffffffffffffffffffffffffffff1673ffffffffffffffffffffffffffffffffffffffff163373ffffffffffffffffffffffffffffffffffffffff1603610537576040517f08c379a000000000000000000000000000000000000000000000000000000000815260040161052e90611238565b60405180910390fd5b6000806000600160009054906101000a900473ffffffffffffffffffffffffffffffffffffffff1673ffffffffffffffffffffffffffffffffffffffff1673ffffffffffffffffffffffffffffffffffffffff16815260200190815260200160002090506000821180156105af575080805490508211155b6105ee576040517f08c379a00000000000000000000000000000000000000000000000000000000081526004016105e5906112a4565b60405180910390fd5b6000816001846105fe91906112f3565b8154811061060f5761060e611327565b5b9060005260206000209060090201905060018081111561063257610631610c0b565b5b8160070160009054906101000a900460ff16600181111561065657610655610c0b565b5b14610696576040517f08c379a000000000000000000000000000000000000000000000000000000000815260040161068d906113a2565b60405180910390fd5b8060020160009054906101000a900460ff1660ff163410156106ed576040517f08c379a00000000000000000000000000000000000000000000000000000000081526004016106e490611434565b60405180910390fd5b80600801600081548092919061070290611454565b9190505550600160009054906101000a900473ffffffffffffffffffffffffffffffffffffffff1673ffffffffffffffffffffffffffffffffffffffff166108fc349081150290604051600060405180830381858888f1935050505015801561076f573d6000803e3d6000fd5b50505050565b600160009054906101000a900473ffffffffffffffffffffffffffffffffffffffff1681565b600160009054906101000a900473ffffffffffffffffffffffffffffffffffffffff1673ffffffffffffffffffffffffffffffffffffffff163373ffffffffffffffffffffffffffffffffffffffff161461082b576040517f08c379a0000000000000000000000000000000000000000000000000000000008152600401610822906114e8565b60405180910390fd5b60006001600080600160009054906101000a900473ffffffffffffffffffffffffffffffffffffffff1673ffffffffffffffffffffffffffffffffffffffff1673ffffffffffffffffffffffffffffffffffffffff1681526020019081526020016000208054905061089d9190611508565b9050600084036108ac57600091505b6000604051806101200160405280600160009054906101000a900473ffffffffffffffffffffffffffffffffffffffff1673ffffffffffffffffffffffffffffffffffffffff1681526020018381526020018560ff1681526020018a815260200188815260200187815260200189815260200184600181111561093257610931610c0b565b5b8152602001868152509050600080600160009054906101000a900473ffffffffffffffffffffffffffffffffffffffff1673ffffffffffffffffffffffffffffffffffffffff1673ffffffffffffffffffffffffffffffffffffffff16815260200190815260200160002081908060018154018082558091505060019003906000526020600020906009020160009091909190915060008201518160000160006101000a81548173ffffffffffffffffffffffffffffffffffffffff021916908373ffffffffffffffffffffffffffffffffffffffff1602179055506020820151816001015560408201518160020160006101000a81548160ff021916908360ff1602179055506060820151816003019081610a4e91906116e8565b506080820151816004019081610a6491906116e8565b5060a0820151816005019081610a7a91906116e8565b5060c0820151816006019081610a9091906116e8565b5060e08201518160070160006101000a81548160ff02191690836001811115610abc57610abb610c0b565b5b021790555061010082015181600801555050505050505050505050565b600081519050919050565b600082825260208201905092915050565b6000819050602082019050919050565b600073ffffffffffffffffffffffffffffffffffffffff82169050919050565b6000610b3082610b05565b9050919050565b610b4081610b25565b82525050565b6000819050919050565b610b5981610b46565b82525050565b600060ff82169050919050565b610b7581610b5f565b82525050565b600081519050919050565b600082825260208201905092915050565b60005b83811015610bb5578082015181840152602081019050610b9a565b60008484015250505050565b6000601f19601f8301169050919050565b6000610bdd82610b7b565b610be78185610b86565b9350610bf7818560208601610b97565b610c0081610bc1565b840191505092915050565b7f4e487b7100000000000000000000000000000000000000000000000000000000600052602160045260246000fd5b60028110610c4b57610c4a610c0b565b5b50565b6000819050610c5c82610c3a565b919050565b6000610c6c82610c4e565b9050919050565b610c7c81610c61565b82525050565b600061012083016000830151610c9b6000860182610b37565b506020830151610cae6020860182610b50565b506040830151610cc16040860182610b6c565b5060608301518482036060860152610cd98282610bd2565b91505060808301518482036080860152610cf38282610bd2565b91505060a083015184820360a0860152610d0d8282610bd2565b91505060c083015184820360c0860152610d278282610bd2565b91505060e0830151610d3c60e0860182610c73565b50610100830151610d51610100860182610b50565b508091505092915050565b6000610d688383610c82565b905092915050565b6000602082019050919050565b6000610d8882610ad9565b610d928185610ae4565b935083602082028501610da485610af5565b8060005b85811015610de05784840389528151610dc18582610d5c565b9450610dcc83610d70565b925060208a01995050600181019050610da8565b50829750879550505050505092915050565b60006020820190508181036000830152610e0c8184610d7d565b905092915050565b6000604051905090565b600080fd5b600080fd5b610e3181610b46565b8114610e3c57600080fd5b50565b600081359050610e4e81610e28565b92915050565b600060208284031215610e6a57610e69610e1e565b5b6000610e7884828501610e3f565b91505092915050565b6000610e8c82610b05565b9050919050565b610e9c81610e81565b82525050565b6000602082019050610eb76000830184610e93565b92915050565b600080fd5b600080fd5b7f4e487b7100000000000000000000000000000000000000000000000000000000600052604160045260246000fd5b610eff82610bc1565b810181811067ffffffffffffffff82111715610f1e57610f1d610ec7565b5b80604052505050565b6000610f31610e14565b9050610f3d8282610ef6565b919050565b600067ffffffffffffffff821115610f5d57610f5c610ec7565b5b610f6682610bc1565b9050602081019050919050565b82818337600083830152505050565b6000610f95610f9084610f42565b610f27565b905082815260208101848484011115610fb157610fb0610ec2565b5b610fbc848285610f73565b509392505050565b600082601f830112610fd957610fd8610ebd565b5b8135610fe9848260208601610f82565b91505092915050565b610ffb81610b5f565b811461100657600080fd5b50565b60008135905061101881610ff2565b92915050565b6002811061102b57600080fd5b50565b60008135905061103d8161101e565b92915050565b600080600080600080600060e0888a03121561106257611061610e1e565b5b600088013567ffffffffffffffff8111156110805761107f610e23565b5b61108c8a828b01610fc4565b975050602088013567ffffffffffffffff8111156110ad576110ac610e23565b5b6110b98a828b01610fc4565b965050604088013567ffffffffffffffff8111156110da576110d9610e23565b5b6110e68a828b01610fc4565b955050606088013567ffffffffffffffff81111561110757611106610e23565b5b6111138a828b01610fc4565b94505060806111248a828b01610e3f565b93505060a06111358a828b01611009565b92505060c06111468a828b0161102e565b91505092959891949750929550565b7f4e487b7100000000000000000000000000000000000000000000000000000000600052602260045260246000fd5b6000600282049050600182168061119c57607f821691505b6020821081036111af576111ae611155565b5b50919050565b600082825260208201905092915050565b7f417574686f722063616e6e6f7420627579207468656972206f776e20626f6f6b60008201527f7300000000000000000000000000000000000000000000000000000000000000602082015250565b60006112226021836111b5565b915061122d826111c6565b604082019050919050565b6000602082019050818103600083015261125181611215565b9050919050565b7f496e76616c696420626f6f6b2049440000000000000000000000000000000000600082015250565b600061128e600f836111b5565b915061129982611258565b602082019050919050565b600060208201905081810360008301526112bd81611281565b9050919050565b7f4e487b7100000000000000000000000000000000000000000000000000000000600052601160045260246000fd5b60006112fe82610b46565b915061130983610b46565b9250828203905081811115611321576113206112c4565b5b92915050565b7f4e487b7100000000000000000000000000000000000000000000000000000000600052603260045260246000fd5b7f426f6f6b206973206e6f7420617661696c61626c6520666f722073616c650000600082015250565b600061138c601e836111b5565b915061139782611356565b602082019050919050565b600060208201905081810360008301526113bb8161137f565b9050919050565b7f496e73756666696369656e742066756e647320746f206275792074686973206260008201527f6f6f6b0000000000000000000000000000000000000000000000000000000000602082015250565b600061141e6023836111b5565b9150611429826113c2565b604082019050919050565b6000602082019050818103600083015261144d81611411565b9050919050565b600061145f82610b46565b91507fffffffffffffffffffffffffffffffffffffffffffffffffffffffffffffffff8203611491576114906112c4565b5b600182019050919050565b7f4f6e6c7920617574686f722063616e207075626c69736820626f6f6b73000000600082015250565b60006114d2601d836111b5565b91506114dd8261149c565b602082019050919050565b60006020820190508181036000830152611501816114c5565b9050919050565b600061151382610b46565b915061151e83610b46565b9250828201905080821115611536576115356112c4565b5b92915050565b60008190508160005260206000209050919050565b60006020601f8301049050919050565b600082821b905092915050565b60006008830261159e7fffffffffffffffffffffffffffffffffffffffffffffffffffffffffffffffff82611561565b6115a88683611561565b95508019841693508086168417925050509392505050565b6000819050919050565b60006115e56115e06115db84610b46565b6115c0565b610b46565b9050919050565b6000819050919050565b6115ff836115ca565b61161361160b826115ec565b84845461156e565b825550505050565b600090565b61162861161b565b6116338184846115f6565b505050565b5b818110156116575761164c600082611620565b600181019050611639565b5050565b601f82111561169c5761166d8161153c565b61167684611551565b81016020851015611685578190505b61169961169185611551565b830182611638565b50505b505050565b600082821c905092915050565b60006116bf600019846008026116a1565b1980831691505092915050565b60006116d883836116ae565b9150826002028217905092915050565b6116f182610b7b565b67ffffffffffffffff81111561170a57611709610ec7565b5b6117148254611184565b61171f82828561165b565b600060209050601f8311600181146117525760008415611740578287015190505b61174a85826116cc565b8655506117b2565b601f1984166117608661153c565b60005b8281101561178857848901518255600182019150602085019450602081019050611763565b868310156117a557848901516117a1601f8916826116ae565b8355505b6001600288020188555050505b50505050505056fea2646970667358221220b449efb974ce15d597a0a2c6925209a1da644b1928118efaf8a362c18e0538a964736f6c63430008180033",
  "linkReferences": {},
  "deployedLinkReferences": {}
}